[
  {
    "id": "58f322b577c7a99499273985",
    "author": "0xdbc1941477ec7877705202b40ac3a765093a5de9",
    "difficulty": "0x1d0869bdfbb",
    "extraData": "0xd783010305844765787087676f312e352e31856c696e7578",
    "gasLimit": "0x1df5e58",
    "gasUsed": "0x0",
    "hash": "0xf2cd6dbbcd3e0f43bf524674284c799853a9c326ad1b229cfa4e659d3c9b49b1",
    "logsBloom": "0x00000000000000000000000000000000000000000000000000000000000000000000000000000000000000000000000000000000000000000000000000000000000000000000000000000000000000000000000000000000000000000000000000000000000000000000000000000000000000000000000000000000000000000000000000000000000000000000000000000000000000000000000000000000000000000000000000000000000000000000000000000000000000000000000000000000000000000000000000000000000000000000000000000000000000000000000000000000000000000000000000000000000000000000000000000000",
    "miner": "0xdbc1941477ec7877705202b40ac3a765093a5de9",
    "mixHash": "0x2772247df315f9c9f7f0e23e5d41f42ba1d4b00a1a5d6f29a662eaaa0915e370",
    "nonce": "0x9ca89c3027dcc24a",
    "number": "0x41eb0",
    "parentHash": "0x23001dff51dc736ddb1815382852649dba42a91f6086db5acfebbce26fe5b7c4",
    "receiptsRoot": "0x56e81f171bcc55a6ff8345e692c0f86e5b48e01b996cadc001622fb5e363b421",
    "sealFields": [
      "0xa02772247df315f9c9f7f0e23e5d41f42ba1d4b00a1a5d6f29a662eaaa0915e370",
      "0x889ca89c3027dcc24a"
    ],
    "sha3Uncles": "0x1dcc4de8dec75d7aab85b567b6ccd41ad312451b948a7413f0a142fd40d49347",
    "size": "0x21e",
    "stateRoot": "0xeea64221ffdb57e40f7d4e33f053fd76428e0bb7253f6d939f5e65d0ef466ecb",
    "timestamp": "0x57552cb0",
    "totalDifficulty": "0x47afa7e0fde1e59",
    "transactions": [

    ],
    "transactionsRoot": "0x56e81f171bcc55a6ff8345e692c0f86e5b48e01b996cadc001622fb5e363b421",
    "uncles": [

    ],
    "decNumber": 270000,
    "totalTransactions": 0,
    "totalFee": "0.00000000",
    "uncleCount": 0,
    "uncleReward": 0,
    "blockReward": 8
  },
  {
    "id": "58f322b577c7a99499273986",
    "author": "0xdbc1941477ec7877705202b40ac3a765093a5de9",
    "difficulty": "0x3a7fd70c666",
    "extraData": "0xd783010407844765787087676f312e362e32856c696e7578",
    "gasLimit": "0x47e7dd",
    "gasUsed": "0x0",
    "hash": "0xecf3b129d66f4e0413c17e67d5c33a76a0ef6369a3f2ba4cbc57145535fb6bc6",
    "logsBloom": "0x00000000000000000000000000000000000000000000000000000000000000000000000000000000000000000000000000000000000000000000000000000000000000000000000000000000000000000000000000000000000000000000000000000000000000000000000000000000000000000000000000000000000000000000000000000000000000000000000000000000000000000000000000000000000000000000000000000000000000000000000000000000000000000000000000000000000000000000000000000000000000000000000000000000000000000000000000000000000000000000000000000000000000000000000000000000",
    "miner": "0xdbc1941477ec7877705202b40ac3a765093a5de9",
    "mixHash": "0x736e0e816a7fad8490f92c8ab19d4e0f9cfe3f991f0c09c268f4931784a3ae56",
    "nonce": "0xed310d841f47f06a",
    "number": "0x57e40",
    "parentHash": "0xbca86028a37e96a894b620d86f2b4d26659ff0a6574aa86417bedb024d530b7a",
    "receiptsRoot": "0x56e81f171bcc55a6ff8345e692c0f86e5b48e01b996cadc001622fb5e363b421",
    "sealFields": [
      "0xa0736e0e816a7fad8490f92c8ab19d4e0f9cfe3f991f0c09c268f4931784a3ae56",
      "0x88ed310d841f47f06a"
    ],
    "sha3Uncles": "0x1dcc4de8dec75d7aab85b567b6ccd41ad312451b948a7413f0a142fd40d49347",
    "size": "0x21d",
    "stateRoot": "0x04f2abffc3f00ee89dfeea7b91128cb560dad2fdbddce90b3c09870574ebcc42",
    "timestamp": "0x57cb5e20",
    "totalDifficulty": "0x9b7d8b587033127",
    "transactions": [

    ],
    "transactionsRoot": "0x56e81f171bcc55a6ff8345e692c0f86e5b48e01b996cadc001622fb5e363b421",
    "uncles": [

    ],
    "decNumber": 360000,
    "totalTransactions": 0,
    "totalFee": "0.00000000",
    "uncleCount": 0,
    "uncleReward": 0,
    "blockReward": 8
  },
  {
    "id": "58f322b577c7a99499273987",
    "author": "0x15788ff762f40323467ec8d3fa264937f6756e1e",
    "difficulty": "0x19e9b3618a0",
    "extraData": "0xd983010302844765787087676f312e352e318777696e646f7773",
    "gasLimit": "0x1df5e76",
    "gasUsed": "0x0",
    "hash": "0xa2482b2ce315f2ff1186d1647ae4fbb9131cc22f301ed39d85807f7b58b03265",
    "logsBloom": "0x00000000000000000000000000000000000000000000000000000000000000000000000000000000000000000000000000000000000000000000000000000000000000000000000000000000000000000000000000000000000000000000000000000000000000000000000000000000000000000000000000000000000000000000000000000000000000000000000000000000000000000000000000000000000000000000000000000000000000000000000000000000000000000000000000000000000000000000000000000000000000000000000000000000000000000000000000000000000000000000000000000000000000000000000000000000",
    "miner": "0x15788ff762f40323467ec8d3fa264937f6756e1e",
    "mixHash": "0x903fc3d400dd0aafb8a73fc5c515f5f47e01b32d78050f627700f51f32fb9aa0",
    "nonce": "0x48afc73368ff9136",
    "number": "0x2bf20",
    "parentHash": "0x8b9b7de0bc9d9bbe781df74bc3f8ad7a6bd087232105ab95c849d8dac1b1d79e",
    "receiptsRoot": "0x56e81f171bcc55a6ff8345e692c0f86e5b48e01b996cadc001622fb5e363b421",
    "sealFields": [
      "0xa0903fc3d400dd0aafb8a73fc5c515f5f47e01b32d78050f627700f51f32fb9aa0",
      "0x8848afc73368ff9136"
    ],
    "sha3Uncles": "0x1dcc4de8dec75d7aab85b567b6ccd41ad312451b948a7413f0a142fd40d49347",
    "size": "0x220",
    "stateRoot": "0xf23dbe5791b901b8bf93fed02aac873f08af62825352585d70ab01787851d49c",
    "timestamp": "0x56de0d9b",
    "totalDifficulty": "0x17fc1ac37677e37",
    "transactions": [

    ],
    "transactionsRoot": "0x56e81f171bcc55a6ff8345e692c0f86e5b48e01b996cadc001622fb5e363b421",
    "uncles": [

    ],
    "decNumber": 180000,
    "totalTransactions": 0,
    "totalFee": "0.00000000",
    "uncleCount": 0,
    "uncleReward": 0,
    "blockReward": 8
  },
  {
    "id": "58f322b577c7a99499273988",
    "author": "0xdbc1941477ec7877705202b40ac3a765093a5de9",
    "difficulty": "0x40dc930c464",
    "extraData": "0xd783010410844765787087676f312e362e32856c696e7578",
    "gasLimit": "0x47e7c4",
    "gasUsed": "0x0",
    "hash": "0x8928ed5cc39821e007d4b77588bead009dba2526d55dcc98ef36f03241f83002",
    "logsBloom": "0x00000000000000000000000000000000000000000000000000000000000000000000000000000000000000000000000000000000000000000000000000000000000000000000000000000000000000000000000000000000000000000000000000000000000000000000000000000000000000000000000000000000000000000000000000000000000000000000000000000000000000000000000000000000000000000000000000000000000000000000000000000000000000000000000000000000000000000000000000000000000000000000000000000000000000000000000000000000000000000000000000000000000000000000000000000000",
    "miner": "0xdbc1941477ec7877705202b40ac3a765093a5de9",
    "mixHash": "0xd8ef31e78488de443624c5a90422824e5660d898af73c70114ad7636ab5ff7e1",
    "nonce": "0xef8ec20005466ee6",
    "number": "0x83d60",
    "parentHash": "0x7b1a6d09fbde20843ce4f4cecb590c86437f302a7ba8f5dc150d07f2ed388a4b",
    "receiptsRoot": "0x56e81f171bcc55a6ff8345e692c0f86e5b48e01b996cadc001622fb5e363b421",
    "sealFields": [
      "0xa0d8ef31e78488de443624c5a90422824e5660d898af73c70114ad7636ab5ff7e1",
      "0x88ef8ec20005466ee6"
    ],
    "sha3Uncles": "0x1dcc4de8dec75d7aab85b567b6ccd41ad312451b948a7413f0a142fd40d49347",
    "size": "0x21d",
    "stateRoot": "0x91c4b14609241489b2b23655bf1d3303e8bc59ba0f5f53decbdde1d8f60bf4bb",
    "timestamp": "0x58b761c4",
    "totalDifficulty": "0x146a80bb739fa1f2",
    "transactions": [

    ],
    "transactionsRoot": "0x56e81f171bcc55a6ff8345e692c0f86e5b48e01b996cadc001622fb5e363b421",
    "uncles": [

    ],
    "decNumber": 540000,
    "totalTransactions": 0,
    "totalFee": "0.00000000",
    "uncleCount": 0,
    "uncleReward": 0,
    "blockReward": 8
  },
  {
    "id": "58f322b577c7a99499273989",
    "author": "0x111a2f5830be9297fe7f49d90a4a6e1221f2b842",
    "difficulty": "0x4091bb4479",
    "extraData": "0xd983010302844765787087676f312e342e328777696e646f7773",
    "gasLimit": "0x1df5e76",
    "gasUsed": "0x0",
    "hash": "0xfa2e2336c46d3d6626bb91ec026a87974c38367ba862c29e4e41fb329019d9b7",
    "logsBloom": "0x00000000000000000000000000000000000000000000000000000000000000000000000000000000000000000000000000000000000000000000000000000000000000000000000000000000000000000000000000000000000000000000000000000000000000000000000000000000000000000000000000000000000000000000000000000000000000000000000000000000000000000000000000000000000000000000000000000000000000000000000000000000000000000000000000000000000000000000000000000000000000000000000000000000000000000000000000000000000000000000000000000000000000000000000000000000",
    "miner": "0x111a2f5830be9297fe7f49d90a4a6e1221f2b842",
    "mixHash": "0xc8bf904f9c7e9f2291947eb1a7d57ce7b4b2acaf798ea63811635f90c7dd413c",
    "nonce": "0xf57ff08720dfc27a",
    "number": "0x15f90",
    "parentHash": "0x6a5074669338b47185a0dba860e6ea05b5bb7ddd1b4e817a157db379601c0bcb",
    "receiptsRoot": "0x56e81f171bcc55a6ff8345e692c0f86e5b48e01b996cadc001622fb5e363b421",
    "sealFields": [
      "0xa0c8bf904f9c7e9f2291947eb1a7d57ce7b4b2acaf798ea63811635f90c7dd413c",
      "0x88f57ff08720dfc27a"
    ],
    "sha3Uncles": "0x1dcc4de8dec75d7aab85b567b6ccd41ad312451b948a7413f0a142fd40d49347",
    "size": "0x21f",
    "stateRoot": "0x79492b52cebbe7e8eb9a7ad5fe9c7c2d1aefcb022fb5c7ba36e2e021298d730e",
    "timestamp": "0x566686b8",
    "totalDifficulty": "0xaa162033a32177",
    "transactions": [

    ],
    "transactionsRoot": "0x56e81f171bcc55a6ff8345e692c0f86e5b48e01b996cadc001622fb5e363b421",
    "uncles": [

    ],
    "decNumber": 90000,
    "totalTransactions": 0,
    "totalFee": "0.00000000",
    "uncleCount": 0,
    "uncleReward": 0,
    "blockReward": 8
  },
  {
    "id": "58f322b577c7a9949927398b",
    "author": "0x93decab0cd745598860f782ac1e8f046cb99e898",
    "difficulty": "0x40000000",
    "extraData": "0x4672616e6b6f497346726565646f6d",
    "gasLimit": "0x1388",
    "gasUsed": "0x0",
    "hash": "0x2fe75cf9ba10cb1105e1750d872911e75365ba24fdd5db7f099445c901fea895",
    "logsBloom": "0x00000000000000000000000000000000000000000000000000000000000000000000000000000000000000000000000000000000000000000000000000000000000000000000000000000000000000000000000000000000000000000000000000000000000000000000000000000000000000000000000000000000000000000000000000000000000000000000000000000000000000000000000000000000000000000000000000000000000000000000000000000000000000000000000000000000000000000000000000000000000000000000000000000000000000000000000000000000000000000000000000000000000000000000000000000000",
    "miner": "0x93decab0cd745598860f782ac1e8f046cb99e898",
    "mixHash": "0x0000000000000000000000000000000000000000000000000000000000000000",
    "nonce": "0x214652414e4b4f21",
    "number": "0x0",
    "parentHash": "0x0000000000000000000000000000000000000000000000000000000000000000",
    "receiptsRoot": "0x56e81f171bcc55a6ff8345e692c0f86e5b48e01b996cadc001622fb5e363b421",
    "sealFields": [
      "0xa00000000000000000000000000000000000000000000000000000000000000000",
      "0x88214652414e4b4f21"
    ],
    "sha3Uncles": "0x1dcc4de8dec75d7aab85b567b6ccd41ad312451b948a7413f0a142fd40d49347",
    "size": "0x20a",
    "stateRoot": "0xc10a9483141b62388c2d2dd9cf5875a3cc0287d91f2946bc53a0b08ff42931cd",
    "timestamp": "0x0",
    "totalDifficulty": "0x40000000",
    "transactions": [

    ],
    "transactionsRoot": "0x56e81f171bcc55a6ff8345e692c0f86e5b48e01b996cadc001622fb5e363b421",
    "uncles": [

    ],
    "decNumber": 0,
    "totalTransactions": 0,
    "totalFee": "0.00000000",
    "uncleCount": 0,
    "uncleReward": 0,
    "blockReward": 8
  },
  {
    "id": "58f322b577c7a9949927398f",
    "author": "0x57c6862a961d23d180517d08a1af1e34a04de289",
    "difficulty": "0x4b7f47f420",
    "extraData": "0xd783010202844765787087676f312e342e32856c696e7578",
    "gasLimit": "0x1df5e76",
    "gasUsed": "0x0",
    "hash": "0x49e9f79cfd8648527b94f07f18bda9e9af0a479bcb2e18a6c885e97d9b1bec02",
    "logsBloom": "0x00000000000000000000000000000000000000000000000000000000000000000000000000000000000000000000000000000000000000000000000000000000000000000000000000000000000000000000000000000000000000000000000000000000000000000000000000000000000000000000000000000000000000000000000000000000000000000000000000000000000000000000000000000000000000000000000000000000000000000000000000000000000000000000000000000000000000000000000000000000000000000000000000000000000000000000000000000000000000000000000000000000000000000000000000000000",
    "miner": "0x57c6862a961d23d180517d08a1af1e34a04de289",
    "mixHash": "0xbb68ce34f4e8eff56793f4a1015f9f6e2b130591dea6754eb5de3beb19543464",
    "nonce": "0xd8841a835aa47eae",
    "number": "0x20f58",
    "parentHash": "0x8123a9be9b66477309543bb37db0cf608aa1a537a56652833e22f300f2646f0b",
    "receiptsRoot": "0x56e81f171bcc55a6ff8345e692c0f86e5b48e01b996cadc001622fb5e363b421",
    "sealFields": [
      "0xa0bb68ce34f4e8eff56793f4a1015f9f6e2b130591dea6754eb5de3beb19543464",
      "0x88d8841a835aa47eae"
    ],
    "sha3Uncles": "0x1dcc4de8dec75d7aab85b567b6ccd41ad312451b948a7413f0a142fd40d49347",
    "size": "0x21d",
    "stateRoot": "0x2b610eacff779a234024dad71e288caf831282a8188df21460c11cf601136a7c",
    "timestamp": "0x56a37c38",
    "totalDifficulty": "0xeaf4e4444dbc77",
    "transactions": [

    ],
    "transactionsRoot": "0x56e81f171bcc55a6ff8345e692c0f86e5b48e01b996cadc001622fb5e363b421",
    "uncles": [

    ],
    "decNumber": 135000,
    "totalTransactions": 0,
    "totalFee": "0.00000000",
    "uncleCount": 0,
    "uncleReward": 0,
    "blockReward": 8
  },
  {
    "id": "58f322b577c7a99499273990",
    "author": "0xdbc1941477ec7877705202b40ac3a765093a5de9",
    "difficulty": "0x55b524fc222",
    "extraData": "0xd783010407844765787087676f312e362e32856c696e7578",
    "gasLimit": "0x47e7c4",
    "gasUsed": "0x0",
    "hash": "0x6ee7a15bd47ce971707fcfe7c86382ac5f48ccb3a58ae3d9c9d94cc5ef1d3a82",
    "logsBloom": "0x00000000000000000000000000000000000000000000000000000000000000000000000000000000000000000000000000000000000000000000000000000000000000000000000000000000000000000000000000000000000000000000000000000000000000000000000000000000000000000000000000000000000000000000000000000000000000000000000000000000000000000000000000000000000000000000000000000000000000000000000000000000000000000000000000000000000000000000000000000000000000000000000000000000000000000000000000000000000000000000000000000000000000000000000000000000",
    "miner": "0xdbc1941477ec7877705202b40ac3a765093a5de9",
    "mixHash": "0x20b0b501459a5f7e3ad57889c3f5a32e75120856e863bb301f27836310ac2230",
    "nonce": "0x805a1370161fe82d",
    "number": "0x62e08",
    "parentHash": "0xe6e5fac0f5874e5f38f3fec1116a2f90d3360b432e58cf2d6e9613cc72d494c1",
    "receiptsRoot": "0x56e81f171bcc55a6ff8345e692c0f86e5b48e01b996cadc001622fb5e363b421",
    "sealFields": [
      "0xa020b0b501459a5f7e3ad57889c3f5a32e75120856e863bb301f27836310ac2230",
      "0x88805a1370161fe82d"
    ],
    "sha3Uncles": "0x1dcc4de8dec75d7aab85b567b6ccd41ad312451b948a7413f0a142fd40d49347",
    "size": "0x21d",
    "stateRoot": "0x9b63a05aeca69859e5eaea48b22c6975bd6e70f998aa6abd77da06ae4b4ad0fa",
    "timestamp": "0x580663f7",
    "totalDifficulty": "0xce7e6c96c853099",
    "transactions": [

    ],
    "transactionsRoot": "0x56e81f171bcc55a6ff8345e692c0f86e5b48e01b996cadc001622fb5e363b421",
    "uncles": [

    ],
    "decNumber": 405000,
    "totalTransactions": 0,
    "totalFee": "0.00000000",
    "uncleCount": 0,
    "uncleReward": 0,
    "blockReward": 8
  },
  {
    "id": "58f322b577c7a99499273991",
    "author": "0xa8b959f6f80ec7c2e732c7fead1387f3f4d1a9e1",
    "difficulty": "0x44feca9998",
    "extraData": "0x",
    "gasLimit": "0x1df5e76",
    "gasUsed": "0x0",
    "hash": "0x434e9f662e73290f9fb47779073573a6eaed020ac543da9e1e4f6a30dfc093df",
    "logsBloom": "0x00000000000000000000000000000000000000000000000000000000000000000000000000000000000000000000000000000000000000000000000000000000000000000000000000000000000000000000000000000000000000000000000000000000000000000000000000000000000000000000000000000000000000000000000000000000000000000000000000000000000000000000000000000000000000000000000000000000000000000000000000000000000000000000000000000000000000000000000000000000000000000000000000000000000000000000000000000000000000000000000000000000000000000000000000000000",
    "miner": "0xa8b959f6f80ec7c2e732c7fead1387f3f4d1a9e1",
    "mixHash": "0xdbe4c0f5ee70f3d611d387995ffe152c8221efb891ae7abd5c518617adc2aca4",
    "nonce": "0x219b823bfc746ffe",
    "number": "0xafc8",
    "parentHash": "0xce8abc789401a1309b9bd3d7f620cca1fc23b590ac4307ef65e4da33cb5cca11",
    "receiptsRoot": "0x56e81f171bcc55a6ff8345e692c0f86e5b48e01b996cadc001622fb5e363b421",
    "sealFields": [
      "0xa0dbe4c0f5ee70f3d611d387995ffe152c8221efb891ae7abd5c518617adc2aca4",
      "0x88219b823bfc746ffe"
    ],
    "sha3Uncles": "0x1dcc4de8dec75d7aab85b567b6ccd41ad312451b948a7413f0a142fd40d49347",
    "size": "0x204",
    "stateRoot": "0x82ae1ad0a363330384f4a7afc5315263b8de6900cfedd7857875e78617048488",
    "timestamp": "0x5629dde7",
    "totalDifficulty": "0x810da2ba0beaee",
    "transactions": [

    ],
    "transactionsRoot": "0x56e81f171bcc55a6ff8345e692c0f86e5b48e01b996cadc001622fb5e363b421",
    "uncles": [

    ],
    "decNumber": 45000,
    "totalTransactions": 0,
    "totalFee": "0.00000000",
    "uncleCount": 0,
    "uncleReward": 0,
    "blockReward": 8
  },
  {
    "id": "58f322b577c7a99499273994",
    "author": "0xdbc1941477ec7877705202b40ac3a765093a5de9",
    "difficulty": "0x4352029c804",
    "extraData": "0xd783010410844765787087676f312e362e32856c696e7578",
    "gasLimit": "0x47e7c4",
    "gasUsed": "0x5208",
    "hash": "0x415ba5aefd9bbd2e870608d7624a87f4501146c173f428b17fa36bad8b9b0774",
    "logsBloom": "0x00000000000000000000000000000000000000000000000000000000000000000000000000000000000000000000000000000000000000000000000000000000000000000000000000000000000000000000000000000000000000000000000000000000000000000000000000000000000000000000000000000000000000000000000000000000000000000000000000000000000000000000000000000000000000000000000000000000000000000000000000000000000000000000000000000000000000000000000000000000000000000000000000000000000000000000000000000000000000000000000000000000000000000000000000000000",
    "miner": "0xdbc1941477ec7877705202b40ac3a765093a5de9",
    "mixHash": "0xef802ac1e5a79e344964fa621485c88ed69e42569c4c781be022a66d5895b5f7",
    "nonce": "0x40697d5008a90717",
    "number": "0x78d98",
    "parentHash": "0x7f92e83aa9bfff8b93c969566087a6081c2888c9335a588ff2397e10d4da2257",
    "receiptsRoot": "0xde1265656c5bf315052a3095beb6f713f9145b40e22eb5a0187119dec8f2026c",
    "sealFields": [
      "0xa0ef802ac1e5a79e344964fa621485c88ed69e42569c4c781be022a66d5895b5f7",
      "0x8840697d5008a90717"
    ],
    "sha3Uncles": "0x1dcc4de8dec75d7aab85b567b6ccd41ad312451b948a7413f0a142fd40d49347",
    "size": "0x292",
    "stateRoot": "0x4cc80fbe035bb0b94c353d466e13f4009d7c6760745abff9a5bc8cd26c1c24e9",
    "timestamp": "0x587c5137",
    "totalDifficulty": "0x113c0d23c29f6b1d",
    "transactions": [
      {
        "id": "",
        "blockHash": "0x415ba5aefd9bbd2e870608d7624a87f4501146c173f428b17fa36bad8b9b0774",
        "blockNumber": "0x78d98",
        "condition": "",
        "creates": "",
        "from": "0xdbc1941477ec7877705202b40ac3a765093a5de9",
        "gas": "0x15f90",
        "gasPrice": "0x4a817c800",
        "hash": "0x38495c4aca28595bb11983e4130ae8c69efd660dfbe0402c3760ee9a2f417d4b",
        "input": "0x",
        "networkId": "",
        "nonce": "0x4de6b",
        "publicKey": "0xa707fab65ee000ce930d53a39ba838cf399213e806e8934118f8241fe7c926aa97ee5d96ee4913a8f7da91418a5658941fc5c57aa60b670077d5f218034621e4",
        "r": "0x258df996a7a9f18c778cc484a54912121c0ce299f234896709eec36c17c6d825",
        "raw": "0xf8708304de6b8504a817c80083015f9094156993c616fa306e93fcf6e856878ccefe6563a388153d7f38ba84d400801ca0258df996a7a9f18c778cc484a54912121c0ce299f234896709eec36c17c6d825a0553b1cf12a87b4734cbe61d22bf8ef98547dcceff5cdcb3bd823dc09653cbb16",
        "s": "0x553b1cf12a87b4734cbe61d22bf8ef98547dcceff5cdcb3bd823dc09653cbb16",
        "standardV": "0x1",
        "to": "0x156993c616fa306e93fcf6e856878ccefe6563a3",
        "transactionIndex": "0x0",
        "v": "0x1c",
        "value": "0x153d7f38ba84d400",
        "status": "",
        "gasPriceDec": "",
        "valueDec": "",
        "transactionFee": ""
      }
    ],
    "transactionsRoot": "0xab5dac9587ca98b7915c52d889a0aeabec564afb5c95ac264859201731ac9a54",
    "uncles": [

    ],
    "decNumber": 495000,
    "totalTransactions": 1,
    "totalFee": "0.00180000",
    "uncleCount": 0,
    "uncleReward": 0,
    "blockReward": 8
  }
]
