[
  {
    "id": "58f322b577c7a9949927398a",
    "blockHash": "0x6964bbf87581734255d6f92e6fef28b7ad56e2280b43495b77d5f78a89c9ce44",
    "blockNumber": "0x6ddd0",
    "condition": "",
    "creates": "",
    "from": "0xabdf3fb1b9412cae2f73f9ab2bdcaf22c947bc09",
    "gas": "0x5208",
    "gasPrice": "0x4a817c800",
    "hash": "0x799667a2e5522afa5e6510c06bc72b9c23235a77222732c294ab912d79984a47",
    "input": "0x",
    "networkId": "",
    "nonce": "0x62",
    "publicKey": "0xadb281f0503d83adb33f99d49eb4daf77978d325c351ce58c434b3e89254809940cef164b3613b8c6b8d9d296ed6d7222d15e98ec59b99a3f2be2b642b40c944",
    "r": "0x93b4f89387ff09c6b4095dbb212bae1b24fc55d1544540ee4a55f58882a39aca",
    "raw": "0xf86c628504a817c80082520894342709de12f503a689efa9671532a72e19a9bbc78801378375dd0c5800801ba093b4f89387ff09c6b4095dbb212bae1b24fc55d1544540ee4a55f58882a39acaa0213cbf338e43a3adad6dfc2bc1174e46da7126eeb4e9a368ed7fc9527166d367",
    "s": "0x213cbf338e43a3adad6dfc2bc1174e46da7126eeb4e9a368ed7fc9527166d367",
    "standardV": "0x0",
    "to": "0x342709de12f503a689efa9671532a72e19a9bbc7",
    "transactionIndex": "0x0",
    "v": "0x1b",
    "value": "0x1378375dd0c5800",
    "status": "",
    "gasPriceDec": "0.00000002",
    "valueDec": "0.08768326",
    "transactionFee": "0.00042000"
  },
  {
    "id": "58f322b577c7a9949927398c",
    "blockHash": "0x415ba5aefd9bbd2e870608d7624a87f4501146c173f428b17fa36bad8b9b0774",
    "blockNumber": "0x78d98",
    "condition": "",
    "creates": "",
    "from": "0xdbc1941477ec7877705202b40ac3a765093a5de9",
    "gas": "0x15f90",
    "gasPrice": "0x4a817c800",
    "hash": "0x38495c4aca28595bb11983e4130ae8c69efd660dfbe0402c3760ee9a2f417d4b",
    "input": "0x",
    "networkId": "",
    "nonce": "0x4de6b",
    "publicKey": "0xa707fab65ee000ce930d53a39ba838cf399213e806e8934118f8241fe7c926aa97ee5d96ee4913a8f7da91418a5658941fc5c57aa60b670077d5f218034621e4",
    "r": "0x258df996a7a9f18c778cc484a54912121c0ce299f234896709eec36c17c6d825",
    "raw": "0xf8708304de6b8504a817c80083015f9094156993c616fa306e93fcf6e856878ccefe6563a388153d7f38ba84d400801ca0258df996a7a9f18c778cc484a54912121c0ce299f234896709eec36c17c6d825a0553b1cf12a87b4734cbe61d22bf8ef98547dcceff5cdcb3bd823dc09653cbb16",
    "s": "0x553b1cf12a87b4734cbe61d22bf8ef98547dcceff5cdcb3bd823dc09653cbb16",
    "standardV": "0x1",
    "to": "0x156993c616fa306e93fcf6e856878ccefe6563a3",
    "transactionIndex": "0x0",
    "v": "0x1c",
    "value": "0x153d7f38ba84d400",
    "status": "",
    "gasPriceDec": "0.00000002",
    "valueDec": "1.53051933",
    "transactionFee": "0.00180000"
  },
  {
    "id": "58f322b577c7a9949927398d",
    "blockHash": "0x670d5dd5c05c1125af56ad2eaa8d2a67c38f2555eed0803d85250630ea5c6a7b",
    "blockNumber": "0x8ed28",
    "condition": "",
    "creates": "",
    "from": "0x522e343f47ffa073817c9d7cc191c3f8f804b609",
    "gas": "0x5208",
    "gasPrice": "0x4a817c800",
    "hash": "0x501438fd84997fcb9216f053f66b53db17434b8e4691831a6947299d008f0208",
    "input": "0x",
    "networkId": "",
    "nonce": "0x43",
    "publicKey": "0x455c6862ed40db6411be7c6e3d3e07b6b59932131d736a1f070127f5625fb8be28de306604d569bdf4acebdf601146d6159d18bec5fcb7deefe1862912b3d976",
    "r": "0x287f091e65c89bbafe5ee6f93dec53c6618655689a10917504f66734a740ef8e",
    "raw": "0xf86c438504a817c80082520894c9710872d3e65edbf7f8776829dd7b21f2085e4088112bd2bc92af9c00801ba0287f091e65c89bbafe5ee6f93dec53c6618655689a10917504f66734a740ef8ea0033027d6637d09b17cf4bd4c5b880d26874cb5edeef3ac4676ac664dff5b38b9",
    "s": "0x33027d6637d09b17cf4bd4c5b880d26874cb5edeef3ac4676ac664dff5b38b9",
    "standardV": "0x0",
    "to": "0xc9710872d3e65edbf7f8776829dd7b21f2085e40",
    "transactionIndex": "0x0",
    "v": "0x1b",
    "value": "0x112bd2bc92af9c00",
    "status": "",
    "gasPriceDec": "0.00000002",
    "valueDec": "1.23731423",
    "transactionFee": "0.00042000"
  },
  {
    "id": "58f322b577c7a9949927398e",
    "blockHash": "0x879736c23d8c35bc6d36fee0a79fc8b56dc16cd3acae1d5bcde026cb8e73e77e",
    "blockNumber": "0x36ee8",
    "condition": "",
    "creates": "",
    "from": "0x4d05cc46cffdaa55e70daf56b4b10565d5a3046a",
    "gas": "0x5208",
    "gasPrice": "0x6fc23ac00",
    "hash": "0xea12aa50144a588212924a541ab926347cbb372a977c839c1d74cbb88349c33a",
    "input": "0x",
    "networkId": "",
    "nonce": "0x49",
    "publicKey": "0x96784b8fb8ca8bf1fae448f74ff2e3af9751e5d6b3576787de6799f39e1c78a54037ca4968bf0977760abbbb64b8f02cbfe0ab1cd70afa9940b68caad01fa9eb",
    "r": "0xee02dfdc6a30421b47b6997568f7cb522cb321b146d42bd2c369ba54f2f0250c",
    "raw": "0xf86c498506fc23ac0082520894342709de12f503a689efa9671532a72e19a9bbc7880eb096e45da6f800801ca0ee02dfdc6a30421b47b6997568f7cb522cb321b146d42bd2c369ba54f2f0250ca021a9a3e31cebbf377a8f3ae74204243be1dc1cd6af1cab27669b0c0b8ddee898",
    "s": "0x21a9a3e31cebbf377a8f3ae74204243be1dc1cd6af1cab27669b0c0b8ddee898",
    "standardV": "0x1",
    "to": "0x342709de12f503a689efa9671532a72e19a9bbc7",
    "transactionIndex": "0x0",
    "v": "0x1c",
    "value": "0xeb096e45da6f800",
    "status": "",
    "gasPriceDec": "0.00000003",
    "valueDec": "1.05851182",
    "transactionFee": "0.00063000"
  },
  {
    "id": "58f322b577c7a99499273992",
    "blockHash": "0xfd5d9c27197d48f4a26595e0186ee4631e5e504c2107401da45836ef67afa695",
    "blockNumber": "0x4ce78",
    "condition": "",
    "creates": "",
    "from": "0xda4051bb3ecdfb0e92e1e32acf5d38f4d92955e1",
    "gas": "0x5208",
    "gasPrice": "0x6fc23ac00",
    "hash": "0xa3692bfc553790d60c17e105b2bbded1a8e3f743f8368d393984c176a177e5b7",
    "input": "0x",
    "networkId": "",
    "nonce": "0x70",
    "publicKey": "0xdbb820ce8b8c1971e2281e44e56f4b1de40b3f9e1bc2e247eb3e56faa71c7557c58bb7d67c1036b5857bc96091606d643b5dc6c99841bbf0ef92efa4e532ab9d",
    "r": "0xdbd34ea83dbfa1f5a0c25adfed5ea5413efd76d9be4c767d4afb488d5450a7cc",
    "raw": "0xf86c708506fc23ac0082520894342709de12f503a689efa9671532a72e19a9bbc7881037c226bf4d6800801ca0dbd34ea83dbfa1f5a0c25adfed5ea5413efd76d9be4c767d4afb488d5450a7cca00c40fe427c02953cf54883d90d3d66787a92b080bdb81f38d7ff642c6dd713ba",
    "s": "0xc40fe427c02953cf54883d90d3d66787a92b080bdb81f38d7ff642c6dd713ba",
    "standardV": "0x1",
    "to": "0x342709de12f503a689efa9671532a72e19a9bbc7",
    "transactionIndex": "0x0",
    "v": "0x1c",
    "value": "0x1037c226bf4d6800",
    "status": "",
    "gasPriceDec": "0.00000003",
    "valueDec": "1.16861610",
    "transactionFee": "0.00063000"
  },
  {
    "id": "58f322b577c7a99499273993",
    "blockHash": "0x879736c23d8c35bc6d36fee0a79fc8b56dc16cd3acae1d5bcde026cb8e73e77e",
    "blockNumber": "0x36ee8",
    "condition": "",
    "creates": "",
    "from": "0xc71706de661f079e6e67914a50bfe1f8f6ab8ac2",
    "gas": "0x5208",
    "gasPrice": "0x6fc23ac00",
    "hash": "0x2c0b85f7b30c8881f1c8353608bed45b67821e62d17ca026684444f1089aa8f2",
    "input": "0x",
    "networkId": "",
    "nonce": "0x27",
    "publicKey": "0x59dc648774e145a9a562b15db7899acb04a63052fe4f88402e125aa3a861cbf7f103073440c34bafd4f49a616309bfecc8e6d14e49e01b6b37da0bc4c986c73a",
    "r": "0xa3a88a0edcd15a897a6cfabcc1134db604dd9e74de8d721d4331c504aba67ad",
    "raw": "0xf86c278506fc23ac0082520894342709de12f503a689efa9671532a72e19a9bbc78821eb3c0d29135400801ba00a3a88a0edcd15a897a6cfabcc1134db604dd9e74de8d721d4331c504aba67ada0070eb873ef66298eb75a3c3ab897b549370e17dc3de1027ac0920768e15c147a",
    "s": "0x70eb873ef66298eb75a3c3ab897b549370e17dc3de1027ac0920768e15c147a",
    "standardV": "0x0",
    "to": "0x342709de12f503a689efa9671532a72e19a9bbc7",
    "transactionIndex": "0x1",
    "v": "0x1b",
    "value": "0x21eb3c0d29135400",
    "status": "",
    "gasPriceDec": "0.00000003",
    "valueDec": "2.44411325",
    "transactionFee": "0.00063000"
  },
  {
    "id": "58f322b577c7a99499273995",
    "blockHash": "0x6964bbf87581734255d6f92e6fef28b7ad56e2280b43495b77d5f78a89c9ce44",
    "blockNumber": "0x6ddd0",
    "condition": "",
    "creates": "",
    "from": "0x7da1ccf989d3328abb69b2f5c86dfedb2333b003",
    "gas": "0x5208",
    "gasPrice": "0x4a817c800",
    "hash": "0xef4a8501e230741eb7ff55783a1ef8dcf9d86daa5826803ed632a7e1d24aa1dd",
    "input": "0x",
    "networkId": "",
    "nonce": "0x22b",
    "publicKey": "0x8c8afe850c0b4dd182dbc5b965bc3c60fefcff16bd792e66c9410e4179049bec0f4d00db233c7f056c81efc689c3d565dd38fc7dffc729965e42053c79d83f6b",
    "r": "0x643e9c3d44fd1a194c59e13e0913036e22c215d9e7d1f81e516dea54852bdd17",
    "raw": "0xf86d82022b8504a817c80082520894342709de12f503a689efa9671532a72e19a9bbc787f68102084cf400801ba0643e9c3d44fd1a194c59e13e0913036e22c215d9e7d1f81e516dea54852bdd17a02df1f0fcc1b493835b07baad209347eb2c1e458d3c9e5ece2b1092642ced62cd",
    "s": "0x2df1f0fcc1b493835b07baad209347eb2c1e458d3c9e5ece2b1092642ced62cd",
    "standardV": "0x0",
    "to": "0x342709de12f503a689efa9671532a72e19a9bbc7",
    "transactionIndex": "0x1",
    "v": "0x1b",
    "value": "0xf68102084cf400",
    "status": "",
    "gasPriceDec": "0.00000002",
    "valueDec": "0.06938469",
    "transactionFee": "0.00042000"
  },
  {
    "id": "58f322b577c7a99499273996",
    "blockHash": "0xfd5d9c27197d48f4a26595e0186ee4631e5e504c2107401da45836ef67afa695",
    "blockNumber": "0x4ce78",
    "condition": "",
    "creates": "",
    "from": "0x3d3757d5b6d168f8bb477dff31d993e190455888",
    "gas": "0x5208",
    "gasPrice": "0x6fc23ac00",
    "hash": "0x178c5e4be86440931aec8cedcf365f6ffb7ffdcf2c18c0ff4dc4fc94c71d8c73",
    "input": "0x",
    "networkId": "",
    "nonce": "0x53",
    "publicKey": "0x0539342fabc4fb495b8f4895a19cfddcc806faecbd62ebe6083c8a77549478f009f9aca8a83657e448ff3a2cb37b6ae60bdd38f9af38c25bd20e87a23fc61bbd",
    "r": "0x34249b4beb76f2318cf18770e9c7951caf112d109752aa1aa7c2cac14e631ae3",
    "raw": "0xf86c538506fc23ac0082520894342709de12f503a689efa9671532a72e19a9bbc78810861be23dd4f400801ba034249b4beb76f2318cf18770e9c7951caf112d109752aa1aa7c2cac14e631ae3a0145d2c63dfd4cd6da430c807fdfcf048186b935d97f91d5c250f1e74b4bd3cc4",
    "s": "0x145d2c63dfd4cd6da430c807fdfcf048186b935d97f91d5c250f1e74b4bd3cc4",
    "standardV": "0x0",
    "to": "0x342709de12f503a689efa9671532a72e19a9bbc7",
    "transactionIndex": "0x1",
    "v": "0x1b",
    "value": "0x10861be23dd4f400",
    "status": "",
    "gasPriceDec": "0.00000003",
    "valueDec": "1.19066981",
    "transactionFee": "0.00063000"
  },
  {
    "id": "58f322b577c7a99499273998",
    "blockHash": "0x879736c23d8c35bc6d36fee0a79fc8b56dc16cd3acae1d5bcde026cb8e73e77e",
    "blockNumber": "0x36ee8",
    "condition": "",
    "creates": "",
    "from": "0xcfaa6ee45ba3d0072309997cfb704f48a17e91e3",
    "gas": "0x5208",
    "gasPrice": "0x6fc23ac00",
    "hash": "0xd17092847541233902beb8f559ba0befacfde43a8ad67135ac03dd7827e48b9f",
    "input": "0x",
    "networkId": "",
    "nonce": "0xd",
    "publicKey": "0x0035c3e5e46caa1cb0308eb49758632d5ed0488ccf4d02f2ac4b932a62c002e59c5d4024fdbd0287563c70cdd3a75dbec04e9927300d94301499f945722501f1",
    "r": "0xbe83e7e484290bf51204d5316ca3bdf38e316e46f243f0a58d082b20e0f9f5e5",
    "raw": "0xf86c0d8506fc23ac0082520894342709de12f503a689efa9671532a72e19a9bbc788244ce20ae41be800801ca0be83e7e484290bf51204d5316ca3bdf38e316e46f243f0a58d082b20e0f9f5e5a0511d5c680f40bf21b0a705e3ea4e7718f74b37f600e2e367a0444ff4579081c3",
    "s": "0x511d5c680f40bf21b0a705e3ea4e7718f74b37f600e2e367a0444ff4579081c3",
    "standardV": "0x1",
    "to": "0x342709de12f503a689efa9671532a72e19a9bbc7",
    "transactionIndex": "0x2",
    "v": "0x1c",
    "value": "0x244ce20ae41be800",
    "status": "",
    "gasPriceDec": "0.00000003",
    "valueDec": "2.61571402",
    "transactionFee": "0.00063000"
  },
  {
    "id": "58f322b577c7a9949927399a",
    "blockHash": "0xfd5d9c27197d48f4a26595e0186ee4631e5e504c2107401da45836ef67afa695",
    "blockNumber": "0x4ce78",
    "condition": "",
    "creates": "",
    "from": "0x64f9544b4100b4da18c6c250a8922e0e0046f9fe",
    "gas": "0x5208",
    "gasPrice": "0x6fc23ac00",
    "hash": "0x3caa21be8e2b4efb027d38c37ff104de5d23869dd635386233a589fb7dadcc6f",
    "input": "0x",
    "networkId": "",
    "nonce": "0x114",
    "publicKey": "0xd04ea0f42ba6f46a039feb5da31b31e2db66b487617f77e72a0ad0811b125657c903822e562d725b13dd63d1f45849964f8d22d0f7f6fe06b282b4c08bdd7842",
    "r": "0x51b314cbaed2545363e23471f97114da9e8ff46423b21a6b40c5e1fe4b33d57c",
    "raw": "0xf86e8201148506fc23ac0082520894342709de12f503a689efa9671532a72e19a9bbc788024aaedf32765400801ca051b314cbaed2545363e23471f97114da9e8ff46423b21a6b40c5e1fe4b33d57ca04ce16b8873537fd1eb7b598e8b145ab66388504e22de8d6ca45c264580e48e3e",
    "s": "0x4ce16b8873537fd1eb7b598e8b145ab66388504e22de8d6ca45c264580e48e3e",
    "standardV": "0x1",
    "to": "0x342709de12f503a689efa9671532a72e19a9bbc7",
    "transactionIndex": "0x2",
    "v": "0x1c",
    "value": "0x24aaedf32765400",
    "status": "",
    "gasPriceDec": "0.00000003",
    "valueDec": "0.16513661",
    "transactionFee": "0.00063000"
  }
]
